{
  "_format": "hh-sol-artifact-1",
  "contractName": "MyNFT",
  "sourceName": "contracts/MyNFT.sol",
  "abi": [
    {
      "inputs": [],
      "stateMutability": "nonpayable",
      "type": "constructor"
    },
    {
      "anonymous": false,
      "inputs": [
        {
          "indexed": true,
          "internalType": "address",
          "name": "owner",
          "type": "address"
        },
        {
          "indexed": true,
          "internalType": "address",
          "name": "approved",
          "type": "address"
        },
        {
          "indexed": true,
          "internalType": "uint256",
          "name": "tokenId",
          "type": "uint256"
        }
      ],
      "name": "Approval",
      "type": "event"
    },
    {
      "anonymous": false,
      "inputs": [
        {
          "indexed": true,
          "internalType": "address",
          "name": "owner",
          "type": "address"
        },
        {
          "indexed": true,
          "internalType": "address",
          "name": "operator",
          "type": "address"
        },
        {
          "indexed": false,
          "internalType": "bool",
          "name": "approved",
          "type": "bool"
        }
      ],
      "name": "ApprovalForAll",
      "type": "event"
    },
    {
      "anonymous": false,
      "inputs": [
        {
          "indexed": false,
          "internalType": "address",
          "name": "sender",
          "type": "address"
        },
        {
          "indexed": false,
          "internalType": "uint256",
          "name": "tokenId",
          "type": "uint256"
        }
      ],
      "name": "NewNFTMinted",
      "type": "event"
    },
    {
      "anonymous": false,
      "inputs": [
        {
          "indexed": true,
          "internalType": "address",
          "name": "from",
          "type": "address"
        },
        {
          "indexed": true,
          "internalType": "address",
          "name": "to",
          "type": "address"
        },
        {
          "indexed": true,
          "internalType": "uint256",
          "name": "tokenId",
          "type": "uint256"
        }
      ],
      "name": "Transfer",
      "type": "event"
    },
    {
      "inputs": [
        {
          "internalType": "address",
          "name": "to",
          "type": "address"
        },
        {
          "internalType": "uint256",
          "name": "tokenId",
          "type": "uint256"
        }
      ],
      "name": "approve",
      "outputs": [],
      "stateMutability": "nonpayable",
      "type": "function"
    },
    {
      "inputs": [
        {
          "internalType": "address",
          "name": "owner",
          "type": "address"
        }
      ],
      "name": "balanceOf",
      "outputs": [
        {
          "internalType": "uint256",
          "name": "",
          "type": "uint256"
        }
      ],
      "stateMutability": "view",
      "type": "function"
    },
    {
      "inputs": [
        {
          "internalType": "uint256",
          "name": "tokenId",
          "type": "uint256"
        }
      ],
      "name": "getApproved",
      "outputs": [
        {
          "internalType": "address",
          "name": "",
          "type": "address"
        }
      ],
      "stateMutability": "view",
      "type": "function"
    },
    {
      "inputs": [
        {
          "internalType": "address",
          "name": "owner",
          "type": "address"
        },
        {
          "internalType": "address",
          "name": "operator",
          "type": "address"
        }
      ],
      "name": "isApprovedForAll",
      "outputs": [
        {
          "internalType": "bool",
          "name": "",
          "type": "bool"
        }
      ],
      "stateMutability": "view",
      "type": "function"
    },
    {
      "inputs": [],
      "name": "makeNFT",
      "outputs": [],
      "stateMutability": "nonpayable",
      "type": "function"
    },
    {
      "inputs": [],
      "name": "name",
      "outputs": [
        {
          "internalType": "string",
          "name": "",
          "type": "string"
        }
      ],
      "stateMutability": "view",
      "type": "function"
    },
    {
      "inputs": [
        {
          "internalType": "uint256",
          "name": "tokenId",
          "type": "uint256"
        }
      ],
      "name": "ownerOf",
      "outputs": [
        {
          "internalType": "address",
          "name": "",
          "type": "address"
        }
      ],
      "stateMutability": "view",
      "type": "function"
    },
    {
      "inputs": [
        {
          "internalType": "uint256",
          "name": "tokenId",
          "type": "uint256"
        }
      ],
      "name": "pickRandomFirstWord",
      "outputs": [
        {
          "internalType": "string",
          "name": "",
          "type": "string"
        }
      ],
      "stateMutability": "view",
      "type": "function"
    },
    {
      "inputs": [
        {
          "internalType": "uint256",
          "name": "tokenId",
          "type": "uint256"
        }
      ],
      "name": "pickRandomSecondWord",
      "outputs": [
        {
          "internalType": "string",
          "name": "",
          "type": "string"
        }
      ],
      "stateMutability": "view",
      "type": "function"
    },
    {
      "inputs": [
        {
          "internalType": "uint256",
          "name": "tokenId",
          "type": "uint256"
        }
      ],
      "name": "pickRandomThirdWord",
      "outputs": [
        {
          "internalType": "string",
          "name": "",
          "type": "string"
        }
      ],
      "stateMutability": "view",
      "type": "function"
    },
    {
      "inputs": [
        {
          "internalType": "address",
          "name": "from",
          "type": "address"
        },
        {
          "internalType": "address",
          "name": "to",
          "type": "address"
        },
        {
          "internalType": "uint256",
          "name": "tokenId",
          "type": "uint256"
        }
      ],
      "name": "safeTransferFrom",
      "outputs": [],
      "stateMutability": "nonpayable",
      "type": "function"
    },
    {
      "inputs": [
        {
          "internalType": "address",
          "name": "from",
          "type": "address"
        },
        {
          "internalType": "address",
          "name": "to",
          "type": "address"
        },
        {
          "internalType": "uint256",
          "name": "tokenId",
          "type": "uint256"
        },
        {
          "internalType": "bytes",
          "name": "data",
          "type": "bytes"
        }
      ],
      "name": "safeTransferFrom",
      "outputs": [],
      "stateMutability": "nonpayable",
      "type": "function"
    },
    {
      "inputs": [
        {
          "internalType": "address",
          "name": "operator",
          "type": "address"
        },
        {
          "internalType": "bool",
          "name": "approved",
          "type": "bool"
        }
      ],
      "name": "setApprovalForAll",
      "outputs": [],
      "stateMutability": "nonpayable",
      "type": "function"
    },
    {
      "inputs": [
        {
          "internalType": "bytes4",
          "name": "interfaceId",
          "type": "bytes4"
        }
      ],
      "name": "supportsInterface",
      "outputs": [
        {
          "internalType": "bool",
          "name": "",
          "type": "bool"
        }
      ],
      "stateMutability": "view",
      "type": "function"
    },
    {
      "inputs": [],
      "name": "symbol",
      "outputs": [
        {
          "internalType": "string",
          "name": "",
          "type": "string"
        }
      ],
      "stateMutability": "view",
      "type": "function"
    },
    {
      "inputs": [
        {
          "internalType": "uint256",
          "name": "tokenId",
          "type": "uint256"
        }
      ],
      "name": "tokenURI",
      "outputs": [
        {
          "internalType": "string",
          "name": "",
          "type": "string"
        }
      ],
      "stateMutability": "view",
      "type": "function"
    },
    {
      "inputs": [
        {
          "internalType": "address",
          "name": "from",
          "type": "address"
        },
        {
          "internalType": "address",
          "name": "to",
          "type": "address"
        },
        {
          "internalType": "uint256",
          "name": "tokenId",
          "type": "uint256"
        }
      ],
      "name": "transferFrom",
      "outputs": [],
      "stateMutability": "nonpayable",
      "type": "function"
    }
  ],
  "bytecode": "0x608060405260405180610160016040528061012f815260200162004e9361012f91396008908162000031919062001193565b506040518061022001604052806040518060400160405280600881526020017f41646f7261626c6500000000000000000000000000000000000000000000000081525081526020016040518060400160405280600581526020017f4372617a7900000000000000000000000000000000000000000000000000000081525081526020016040518060400160405280600581526020017f427261766500000000000000000000000000000000000000000000000000000081525081526020016040518060400160405280600881526020017f4172726f67616e7400000000000000000000000000000000000000000000000081525081526020016040518060400160405280600981526020017f44616e6765726f7573000000000000000000000000000000000000000000000081525081526020016040518060400160405280600481526020017f437574650000000000000000000000000000000000000000000000000000000081525081526020016040518060400160405280600981526020017f446570726573736564000000000000000000000000000000000000000000000081525081526020016040518060400160405280600781526020017f437572696f75730000000000000000000000000000000000000000000000000081525081526020016040518060400160405280600481526020017f43616c6d0000000000000000000000000000000000000000000000000000000081525081526020016040518060400160405280600781526020017f4361726566756c0000000000000000000000000000000000000000000000000081525081526020016040518060400160405280600481526020017f427573790000000000000000000000000000000000000000000000000000000081525081526020016040518060400160405280600481526020017f527564650000000000000000000000000000000000000000000000000000000081525081526020016040518060400160405280600481526020017f4c617a790000000000000000000000000000000000000000000000000000000081525081526020016040518060400160405280600881526020017f467269656e646c7900000000000000000000000000000000000000000000000081525081526020016040518060400160405280600781526020017f53656c666973680000000000000000000000000000000000000000000000000081525081526020016040518060400160405280600881526020017f526174696f6e616c00000000000000000000000000000000000000000000000081525081526020016040518060400160405280600581526020017f54696d696400000000000000000000000000000000000000000000000000000081525081525060099060116200043992919062000dcc565b506040518061020001604052806040518060400160405280600481526020017f436865660000000000000000000000000000000000000000000000000000000081525081526020016040518060400160405280600681526020017f446f63746f72000000000000000000000000000000000000000000000000000081525081526020016040518060400160405280600681526020017f506f6c696365000000000000000000000000000000000000000000000000000081525081526020016040518060400160405280600981526020017f446574656374697665000000000000000000000000000000000000000000000081525081526020016040518060400160405280600981526020017f536369656e74697374000000000000000000000000000000000000000000000081525081526020016040518060400160405280600a81526020017f50726f6772616d6d65720000000000000000000000000000000000000000000081525081526020016040518060400160405280600a81526020017f4a6f75726e616c6973740000000000000000000000000000000000000000000081525081526020016040518060400160405280600781526020017f44656e746973740000000000000000000000000000000000000000000000000081525081526020016040518060400160405280600a81526020017f4163636f756e74616e740000000000000000000000000000000000000000000081525081526020016040518060400160405280600881526020017f44657369676e657200000000000000000000000000000000000000000000000081525081526020016040518060400160405280600781526020017f706c756d6265720000000000000000000000000000000000000000000000000081525081526020016040518060400160405280600681526020017f4c6177796572000000000000000000000000000000000000000000000000000081525081526020016040518060400160405280600981526020017f536563726574617279000000000000000000000000000000000000000000000081525081526020016040518060400160405280600c81526020017f54726176656c206167656e74000000000000000000000000000000000000000081525081526020016040518060400160405280600c81526020017f526563657074696f6e697374000000000000000000000000000000000000000081525081526020016040518060400160405280600a81526020017f506861726d616369737400000000000000000000000000000000000000000000815250815250600a9060106200080692919062000e2c565b506040518061022001604052806040518060400160405280600381526020017f446f67000000000000000000000000000000000000000000000000000000000081525081526020016040518060400160405280600481526020017f426561720000000000000000000000000000000000000000000000000000000081525081526020016040518060400160405280600481526020017f476f61740000000000000000000000000000000000000000000000000000000081525081526020016040518060400160405280600881526020017f456c657068616e7400000000000000000000000000000000000000000000000081525081526020016040518060400160405280600581526020017f486f72736500000000000000000000000000000000000000000000000000000081525081526020016040518060400160405280600381526020017f436174000000000000000000000000000000000000000000000000000000000081525081526020016040518060400160405280600481526020017f46726f670000000000000000000000000000000000000000000000000000000081525081526020016040518060400160405280600781526020017f476972616666650000000000000000000000000000000000000000000000000081525081526020016040518060400160405280600681526020017f4d6f6e6b6579000000000000000000000000000000000000000000000000000081525081526020016040518060400160405280600681526020017f496775616e61000000000000000000000000000000000000000000000000000081525081526020016040518060400160405280600581526020017f536865657000000000000000000000000000000000000000000000000000000081525081526020016040518060400160405280600581526020017f536e616b6500000000000000000000000000000000000000000000000000000081525081526020016040518060400160405280600581526020017f5a6562726100000000000000000000000000000000000000000000000000000081525081526020016040518060400160405280600881526020017f4b616e6761726f6f00000000000000000000000000000000000000000000000081525081526020016040518060400160405280600681526020017f496775616e61000000000000000000000000000000000000000000000000000081525081526020016040518060400160405280600481526020017f466973680000000000000000000000000000000000000000000000000000000081525081526020016040518060400160405280600881526020017f466c616d696e676f000000000000000000000000000000000000000000000000815250815250600b90601162000c0e92919062000dcc565b5034801562000c1c57600080fd5b506040518060400160405280600981526020017f5371756172654e465400000000000000000000000000000000000000000000008152506040518060400160405280600681526020017f5351554152450000000000000000000000000000000000000000000000000000815250816000908162000c9a919062001193565b50806001908162000cac919062001193565b50505062000cfa6040518060400160405280601e81526020017f54686973206973206d79204e465420636f6e74726163742e20576f616821000081525062000d0060201b620010471760201c565b6200132d565b62000da08160405160240162000d17919062001309565b6040516020818303038152906040527f41304fac000000000000000000000000000000000000000000000000000000007bffffffffffffffffffffffffffffffffffffffffffffffffffffffff19166020820180517bffffffffffffffffffffffffffffffffffffffffffffffffffffffff838183161783525050505062000da360201b60201c565b50565b60008151905060006a636f6e736f6c652e6c6f679050602083016000808483855afa5050505050565b82805482825590600052602060002090810192821562000e19579160200282015b8281111562000e1857825182908162000e07919062001193565b509160200191906001019062000ded565b5b50905062000e28919062000e8c565b5090565b82805482825590600052602060002090810192821562000e79579160200282015b8281111562000e7857825182908162000e67919062001193565b509160200191906001019062000e4d565b5b50905062000e88919062000e8c565b5090565b5b8082111562000eb0576000818162000ea6919062000eb4565b5060010162000e8d565b5090565b50805462000ec29062000f82565b6000825580601f1062000ed6575062000ef7565b601f01602090049060005260206000209081019062000ef6919062000efa565b5b50565b5b8082111562000f1557600081600090555060010162000efb565b5090565b600081519050919050565b7f4e487b7100000000000000000000000000000000000000000000000000000000600052604160045260246000fd5b7f4e487b7100000000000000000000000000000000000000000000000000000000600052602260045260246000fd5b6000600282049050600182168062000f9b57607f821691505b60208210810362000fb15762000fb062000f53565b5b50919050565b60008190508160005260206000209050919050565b60006020601f8301049050919050565b600082821b905092915050565b6000600883026200101b7fffffffffffffffffffffffffffffffffffffffffffffffffffffffffffffffff8262000fdc565b62001027868362000fdc565b95508019841693508086168417925050509392505050565b6000819050919050565b6000819050919050565b6000620010746200106e62001068846200103f565b62001049565b6200103f565b9050919050565b6000819050919050565b620010908362001053565b620010a86200109f826200107b565b84845462000fe9565b825550505050565b600090565b620010bf620010b0565b620010cc81848462001085565b505050565b5b81811015620010f457620010e8600082620010b5565b600181019050620010d2565b5050565b601f82111562001143576200110d8162000fb7565b620011188462000fcc565b8101602085101562001128578190505b62001140620011378562000fcc565b830182620010d1565b50505b505050565b600082821c905092915050565b6000620011686000198460080262001148565b1980831691505092915050565b600062001183838362001155565b9150826002028217905092915050565b6200119e8262000f19565b67ffffffffffffffff811115620011ba57620011b962000f24565b5b620011c6825462000f82565b620011d3828285620010f8565b600060209050601f8311600181146200120b5760008415620011f6578287015190505b62001202858262001175565b86555062001272565b601f1984166200121b8662000fb7565b60005b8281101562001245578489015182556001820191506020850194506020810190506200121e565b8683101562001265578489015162001261601f89168262001155565b8355505b6001600288020188555050505b505050505050565b600082825260208201905092915050565b60005b83811015620012ab5780820151818401526020810190506200128e565b60008484015250505050565b6000601f19601f8301169050919050565b6000620012d58262000f19565b620012e181856200127a565b9350620012f38185602086016200128b565b620012fe81620012b7565b840191505092915050565b60006020820190508181036000830152620013258184620012c8565b905092915050565b613b56806200133d6000396000f3fe608060405234801561001057600080fd5b506004361061010b5760003560e01c806370a08231116100a2578063b187301f11610071578063b187301f146102b6578063b88d4fde146102e6578063c575757a14610302578063c87b56dd14610332578063e985e9c5146103625761010b565b806370a082311461024257806395d89b4114610272578063a22cb46514610290578063b036b4bd146102ac5761010b565b806323b872dd116100de57806323b872dd146101aa5780632de38d68146101c657806342842e0e146101f65780636352211e146102125761010b565b806301ffc9a71461011057806306fdde0314610140578063081812fc1461015e578063095ea7b31461018e575b600080fd5b61012a600480360381019061012591906123c5565b610392565b604051610137919061240d565b60405180910390f35b610148610474565b60405161015591906124b8565b60405180910390f35b61017860048036038101906101739190612510565b610506565b604051610185919061257e565b60405180910390f35b6101a860048036038101906101a391906125c5565b61054c565b005b6101c460048036038101906101bf9190612605565b610663565b005b6101e060048036038101906101db9190612510565b6106c3565b6040516101ed91906124b8565b60405180910390f35b610210600480360381019061020b9190612605565b6107bb565b005b61022c60048036038101906102279190612510565b6107db565b604051610239919061257e565b60405180910390f35b61025c60048036038101906102579190612658565b610861565b6040516102699190612694565b60405180910390f35b61027a610918565b60405161028791906124b8565b60405180910390f35b6102aa60048036038101906102a591906126db565b6109aa565b005b6102b46109c0565b005b6102d060048036038101906102cb9190612510565b610c4f565b6040516102dd91906124b8565b60405180910390f35b61030060048036038101906102fb9190612850565b610d47565b005b61031c60048036038101906103179190612510565b610da9565b60405161032991906124b8565b60405180910390f35b61034c60048036038101906103479190612510565b610ea1565b60405161035991906124b8565b60405180910390f35b61037c600480360381019061037791906128d3565b610fb3565b604051610389919061240d565b60405180910390f35b60007f80ac58cd000000000000000000000000000000000000000000000000000000007bffffffffffffffffffffffffffffffffffffffffffffffffffffffff1916827bffffffffffffffffffffffffffffffffffffffffffffffffffffffff1916148061045d57507f5b5e139f000000000000000000000000000000000000000000000000000000007bffffffffffffffffffffffffffffffffffffffffffffffffffffffff1916827bffffffffffffffffffffffffffffffffffffffffffffffffffffffff1916145b8061046d575061046c826110e0565b5b9050919050565b60606000805461048390612942565b80601f01602080910402602001604051908101604052809291908181526020018280546104af90612942565b80156104fc5780601f106104d1576101008083540402835291602001916104fc565b820191906000526020600020905b8154815290600101906020018083116104df57829003601f168201915b5050505050905090565b60006105118261114a565b6004600083815260200190815260200160002060009054906101000a900473ffffffffffffffffffffffffffffffffffffffff169050919050565b6000610557826107db565b90508073ffffffffffffffffffffffffffffffffffffffff168373ffffffffffffffffffffffffffffffffffffffff16036105c7576040517f08c379a00000000000000000000000000000000000000000000000000000000081526004016105be906129e5565b60405180910390fd5b8073ffffffffffffffffffffffffffffffffffffffff166105e6611195565b73ffffffffffffffffffffffffffffffffffffffff16148061061557506106148161060f611195565b610fb3565b5b610654576040517f08c379a000000000000000000000000000000000000000000000000000000000815260040161064b90612a77565b60405180910390fd5b61065e838361119d565b505050565b61067461066e611195565b82611256565b6106b3576040517f08c379a00000000000000000000000000000000000000000000000000000000081526004016106aa90612b09565b60405180910390fd5b6106be8383836112eb565b505050565b606060006106f76106d3846115e4565b6040516020016106e39190612bb1565b6040516020818303038152906040526116b2565b90506009805490508161070a9190612c02565b9050600981815481106107205761071f612c33565b5b90600052602060002001805461073590612942565b80601f016020809104026020016040519081016040528092919081815260200182805461076190612942565b80156107ae5780601f10610783576101008083540402835291602001916107ae565b820191906000526020600020905b81548152906001019060200180831161079157829003601f168201915b5050505050915050919050565b6107d683838360405180602001604052806000815250610d47565b505050565b6000806107e7836116e5565b9050600073ffffffffffffffffffffffffffffffffffffffff168173ffffffffffffffffffffffffffffffffffffffff1603610858576040517f08c379a000000000000000000000000000000000000000000000000000000000815260040161084f90612cae565b60405180910390fd5b80915050919050565b60008073ffffffffffffffffffffffffffffffffffffffff168273ffffffffffffffffffffffffffffffffffffffff16036108d1576040517f08c379a00000000000000000000000000000000000000000000000000000000081526004016108c890612d40565b60405180910390fd5b600360008373ffffffffffffffffffffffffffffffffffffffff1673ffffffffffffffffffffffffffffffffffffffff168152602001908152602001600020549050919050565b60606001805461092790612942565b80601f016020809104026020016040519081016040528092919081815260200182805461095390612942565b80156109a05780601f10610975576101008083540402835291602001916109a0565b820191906000526020600020905b81548152906001019060200180831161098357829003601f168201915b5050505050905090565b6109bc6109b5611195565b8383611722565b5050565b60006109cc600761188e565b905060006109d9826106c3565b905060006109e683610c4f565b905060006109f384610da9565b90506000838383604051602001610a0c93929190612d60565b604051602081830303815290604052905060006008858585604051602001610a379493929190612e75565b6040516020818303038152906040529050610a866040518060400160405280601581526020017f0a2d2d2d2d2d2d2d2d2d2d2d2d2d2d2d2d2d2d2d2d0000000000000000000000815250611047565b610a8f81611047565b610acd6040518060400160405280601581526020017f2d2d2d2d2d2d2d2d2d2d2d2d2d2d2d2d2d2d2d2d0a0000000000000000000000815250611047565b6000610b0183610adc8461189c565b604051602001610aed929190613014565b60405160208183030381529060405261189c565b9050600081604051602001610b1691906130a5565b6040516020818303038152906040529050610b656040518060400160405280601581526020017f0a2d2d2d2d2d2d2d2d2d2d2d2d2d2d2d2d2d2d2d2d0000000000000000000000815250611047565b610b8d81604051602001610b799190613139565b604051602081830303815290604052611047565b610bcb6040518060400160405280601581526020017f2d2d2d2d2d2d2d2d2d2d2d2d2d2d2d2d2d2d2d2d0a0000000000000000000000815250611047565b610bd53389611a33565b610bdf8882611a51565b610be96007611abe565b610c0c604051806060016040528060258152602001613abc602591398933611ad4565b7f1c05098ed1ff38e6238d2b1b04b2c7977d4c94ce651bda6473f9dba8dbf01da03389604051610c3d92919061315b565b60405180910390a15050505050505050565b60606000610c83610c5f846115e4565b604051602001610c6f91906131d0565b6040516020818303038152906040526116b2565b9050600a8054905081610c969190612c02565b9050600a8181548110610cac57610cab612c33565b5b906000526020600020018054610cc190612942565b80601f0160208091040260200160405190810160405280929190818152602001828054610ced90612942565b8015610d3a5780601f10610d0f57610100808354040283529160200191610d3a565b820191906000526020600020905b815481529060010190602001808311610d1d57829003601f168201915b5050505050915050919050565b610d58610d52611195565b83611256565b610d97576040517f08c379a0000000000000000000000000000000000000000000000000000000008152600401610d8e90612b09565b60405180910390fd5b610da384848484611b73565b50505050565b60606000610ddd610db9846115e4565b604051602001610dc9919061323e565b6040516020818303038152906040526116b2565b9050600b8054905081610df09190612c02565b9050600b8181548110610e0657610e05612c33565b5b906000526020600020018054610e1b90612942565b80601f0160208091040260200160405190810160405280929190818152602001828054610e4790612942565b8015610e945780601f10610e6957610100808354040283529160200191610e94565b820191906000526020600020905b815481529060010190602001808311610e7757829003601f168201915b5050505050915050919050565b6060610eac8261114a565b6000600660008481526020019081526020016000208054610ecc90612942565b80601f0160208091040260200160405190810160405280929190818152602001828054610ef890612942565b8015610f455780601f10610f1a57610100808354040283529160200191610f45565b820191906000526020600020905b815481529060010190602001808311610f2857829003601f168201915b505050505090506000610f56611bcf565b90506000815103610f6b578192505050610fae565b600082511115610fa0578082604051602001610f88929190613260565b60405160208183030381529060405292505050610fae565b610fa984611be6565b925050505b919050565b6000600560008473ffffffffffffffffffffffffffffffffffffffff1673ffffffffffffffffffffffffffffffffffffffff16815260200190815260200160002060008373ffffffffffffffffffffffffffffffffffffffff1673ffffffffffffffffffffffffffffffffffffffff16815260200190815260200160002060009054906101000a900460ff16905092915050565b6110dd8160405160240161105b91906124b8565b6040516020818303038152906040527f41304fac000000000000000000000000000000000000000000000000000000007bffffffffffffffffffffffffffffffffffffffffffffffffffffffff19166020820180517bffffffffffffffffffffffffffffffffffffffffffffffffffffffff8381831617835250505050611c4e565b50565b60007f01ffc9a7000000000000000000000000000000000000000000000000000000007bffffffffffffffffffffffffffffffffffffffffffffffffffffffff1916827bffffffffffffffffffffffffffffffffffffffffffffffffffffffff1916149050919050565b61115381611c77565b611192576040517f08c379a000000000000000000000000000000000000000000000000000000000815260040161118990612cae565b60405180910390fd5b50565b600033905090565b816004600083815260200190815260200160002060006101000a81548173ffffffffffffffffffffffffffffffffffffffff021916908373ffffffffffffffffffffffffffffffffffffffff160217905550808273ffffffffffffffffffffffffffffffffffffffff16611210836107db565b73ffffffffffffffffffffffffffffffffffffffff167f8c5be1e5ebec7d5bd14f71427d1e84f3dd0314c0f7b2291e5b200ac8c7c3b92560405160405180910390a45050565b600080611262836107db565b90508073ffffffffffffffffffffffffffffffffffffffff168473ffffffffffffffffffffffffffffffffffffffff1614806112a457506112a38185610fb3565b5b806112e257508373ffffffffffffffffffffffffffffffffffffffff166112ca84610506565b73ffffffffffffffffffffffffffffffffffffffff16145b91505092915050565b8273ffffffffffffffffffffffffffffffffffffffff1661130b826107db565b73ffffffffffffffffffffffffffffffffffffffff1614611361576040517f08c379a0000000000000000000000000000000000000000000000000000000008152600401611358906132f6565b60405180910390fd5b600073ffffffffffffffffffffffffffffffffffffffff168273ffffffffffffffffffffffffffffffffffffffff16036113d0576040517f08c379a00000000000000000000000000000000000000000000000000000000081526004016113c790613388565b60405180910390fd5b6113dd8383836001611cb8565b8273ffffffffffffffffffffffffffffffffffffffff166113fd826107db565b73ffffffffffffffffffffffffffffffffffffffff1614611453576040517f08c379a000000000000000000000000000000000000000000000000000000000815260040161144a906132f6565b60405180910390fd5b6004600082815260200190815260200160002060006101000a81549073ffffffffffffffffffffffffffffffffffffffff02191690556001600360008573ffffffffffffffffffffffffffffffffffffffff1673ffffffffffffffffffffffffffffffffffffffff168152602001908152602001600020600082825403925050819055506001600360008473ffffffffffffffffffffffffffffffffffffffff1673ffffffffffffffffffffffffffffffffffffffff16815260200190815260200160002060008282540192505081905550816002600083815260200190815260200160002060006101000a81548173ffffffffffffffffffffffffffffffffffffffff021916908373ffffffffffffffffffffffffffffffffffffffff160217905550808273ffffffffffffffffffffffffffffffffffffffff168473ffffffffffffffffffffffffffffffffffffffff167fddf252ad1be2c89b69c2b068fc378daa952ba7f163c4a11628f55a4df523b3ef60405160405180910390a46115df8383836001611dde565b505050565b6060600060016115f384611de4565b01905060008167ffffffffffffffff81111561161257611611612725565b5b6040519080825280601f01601f1916602001820160405280156116445781602001600182028036833780820191505090505b509050600082602001820190505b6001156116a7578080600190039150507f3031323334353637383961626364656600000000000000000000000000000000600a86061a8153600a858161169b5761169a612bd3565b5b04945060008503611652575b819350505050919050565b6000816040516020016116c591906133a8565b6040516020818303038152906040528051906020012060001c9050919050565b60006002600083815260200190815260200160002060009054906101000a900473ffffffffffffffffffffffffffffffffffffffff169050919050565b8173ffffffffffffffffffffffffffffffffffffffff168373ffffffffffffffffffffffffffffffffffffffff1603611790576040517f08c379a00000000000000000000000000000000000000000000000000000000081526004016117879061340b565b60405180910390fd5b80600560008573ffffffffffffffffffffffffffffffffffffffff1673ffffffffffffffffffffffffffffffffffffffff16815260200190815260200160002060008473ffffffffffffffffffffffffffffffffffffffff1673ffffffffffffffffffffffffffffffffffffffff16815260200190815260200160002060006101000a81548160ff0219169083151502179055508173ffffffffffffffffffffffffffffffffffffffff168373ffffffffffffffffffffffffffffffffffffffff167f17307eab39ab6107e8899845ad3d59bd9653f200f220920489ca2b5937696c3183604051611881919061240d565b60405180910390a3505050565b600081600001549050919050565b6060600082519050600081036118c45760405180602001604052806000815250915050611a2e565b600060036002836118d5919061345a565b6118df919061348e565b60046118eb91906134bf565b905060006020826118fc919061345a565b67ffffffffffffffff81111561191557611914612725565b5b6040519080825280601f01601f1916602001820160405280156119475781602001600182028036833780820191505090505b5090506000604051806060016040528060408152602001613ae1604091399050600181016020830160005b868110156119eb5760038101905062ffffff818a015116603f8160121c168401518060081b905060ff603f83600c1c1686015116810190508060081b905060ff603f8360061c1686015116810190508060081b905060ff603f831686015116810190508060e01b90508084526004840193505050611972565b506003860660018114611a055760028114611a1557611a20565b613d3d60f01b6002830352611a20565b603d60f81b60018303525b508484525050819450505050505b919050565b611a4d828260405180602001604052806000815250611f37565b5050565b611a5a82611c77565b611a99576040517f08c379a0000000000000000000000000000000000000000000000000000000008152600401611a9090613573565b60405180910390fd5b80600660008481526020019081526020016000209081611ab9919061372a565b505050565b6001816000016000828254019250508190555050565b611b6e838383604051602401611aec939291906137fc565b6040516020818303038152906040527f1c7ec448000000000000000000000000000000000000000000000000000000007bffffffffffffffffffffffffffffffffffffffffffffffffffffffff19166020820180517bffffffffffffffffffffffffffffffffffffffffffffffffffffffff8381831617835250505050611c4e565b505050565b611b7e8484846112eb565b611b8a84848484611f92565b611bc9576040517f08c379a0000000000000000000000000000000000000000000000000000000008152600401611bc0906138ac565b60405180910390fd5b50505050565b606060405180602001604052806000815250905090565b6060611bf18261114a565b6000611bfb611bcf565b90506000815111611c1b5760405180602001604052806000815250611c46565b80611c25846115e4565b604051602001611c36929190613260565b6040516020818303038152906040525b915050919050565b60008151905060006a636f6e736f6c652e6c6f679050602083016000808483855afa5050505050565b60008073ffffffffffffffffffffffffffffffffffffffff16611c99836116e5565b73ffffffffffffffffffffffffffffffffffffffff1614159050919050565b6001811115611dd857600073ffffffffffffffffffffffffffffffffffffffff168473ffffffffffffffffffffffffffffffffffffffff1614611d4c5780600360008673ffffffffffffffffffffffffffffffffffffffff1673ffffffffffffffffffffffffffffffffffffffff1681526020019081526020016000206000828254611d4491906138cc565b925050819055505b600073ffffffffffffffffffffffffffffffffffffffff168373ffffffffffffffffffffffffffffffffffffffff1614611dd75780600360008573ffffffffffffffffffffffffffffffffffffffff1673ffffffffffffffffffffffffffffffffffffffff1681526020019081526020016000206000828254611dcf919061345a565b925050819055505b5b50505050565b50505050565b600080600090507a184f03e93ff9f4daa797ed6e38ed64bf6a1f0100000000000000008310611e42577a184f03e93ff9f4daa797ed6e38ed64bf6a1f0100000000000000008381611e3857611e37612bd3565b5b0492506040810190505b6d04ee2d6d415b85acef81000000008310611e7f576d04ee2d6d415b85acef81000000008381611e7557611e74612bd3565b5b0492506020810190505b662386f26fc100008310611eae57662386f26fc100008381611ea457611ea3612bd3565b5b0492506010810190505b6305f5e1008310611ed7576305f5e1008381611ecd57611ecc612bd3565b5b0492506008810190505b6127108310611efc576127108381611ef257611ef1612bd3565b5b0492506004810190505b60648310611f1f5760648381611f1557611f14612bd3565b5b0492506002810190505b600a8310611f2e576001810190505b80915050919050565b611f418383612119565b611f4e6000848484611f92565b611f8d576040517f08c379a0000000000000000000000000000000000000000000000000000000008152600401611f84906138ac565b60405180910390fd5b505050565b6000611fb38473ffffffffffffffffffffffffffffffffffffffff16612336565b1561210c578373ffffffffffffffffffffffffffffffffffffffff1663150b7a02611fdc611195565b8786866040518563ffffffff1660e01b8152600401611ffe9493929190613955565b6020604051808303816000875af192505050801561203a57506040513d601f19601f8201168201806040525081019061203791906139b6565b60015b6120bc573d806000811461206a576040519150601f19603f3d011682016040523d82523d6000602084013e61206f565b606091505b5060008151036120b4576040517f08c379a00000000000000000000000000000000000000000000000000000000081526004016120ab906138ac565b60405180910390fd5b805181602001fd5b63150b7a0260e01b7bffffffffffffffffffffffffffffffffffffffffffffffffffffffff1916817bffffffffffffffffffffffffffffffffffffffffffffffffffffffff191614915050612111565b600190505b949350505050565b600073ffffffffffffffffffffffffffffffffffffffff168273ffffffffffffffffffffffffffffffffffffffff1603612188576040517f08c379a000000000000000000000000000000000000000000000000000000000815260040161217f90613a2f565b60405180910390fd5b61219181611c77565b156121d1576040517f08c379a00000000000000000000000000000000000000000000000000000000081526004016121c890613a9b565b60405180910390fd5b6121df600083836001611cb8565b6121e881611c77565b15612228576040517f08c379a000000000000000000000000000000000000000000000000000000000815260040161221f90613a9b565b60405180910390fd5b6001600360008473ffffffffffffffffffffffffffffffffffffffff1673ffffffffffffffffffffffffffffffffffffffff16815260200190815260200160002060008282540192505081905550816002600083815260200190815260200160002060006101000a81548173ffffffffffffffffffffffffffffffffffffffff021916908373ffffffffffffffffffffffffffffffffffffffff160217905550808273ffffffffffffffffffffffffffffffffffffffff16600073ffffffffffffffffffffffffffffffffffffffff167fddf252ad1be2c89b69c2b068fc378daa952ba7f163c4a11628f55a4df523b3ef60405160405180910390a4612332600083836001611dde565b5050565b6000808273ffffffffffffffffffffffffffffffffffffffff163b119050919050565b6000604051905090565b600080fd5b600080fd5b60007fffffffff0000000000000000000000000000000000000000000000000000000082169050919050565b6123a28161236d565b81146123ad57600080fd5b50565b6000813590506123bf81612399565b92915050565b6000602082840312156123db576123da612363565b5b60006123e9848285016123b0565b91505092915050565b60008115159050919050565b612407816123f2565b82525050565b600060208201905061242260008301846123fe565b92915050565b600081519050919050565b600082825260208201905092915050565b60005b83811015612462578082015181840152602081019050612447565b60008484015250505050565b6000601f19601f8301169050919050565b600061248a82612428565b6124948185612433565b93506124a4818560208601612444565b6124ad8161246e565b840191505092915050565b600060208201905081810360008301526124d2818461247f565b905092915050565b6000819050919050565b6124ed816124da565b81146124f857600080fd5b50565b60008135905061250a816124e4565b92915050565b60006020828403121561252657612525612363565b5b6000612534848285016124fb565b91505092915050565b600073ffffffffffffffffffffffffffffffffffffffff82169050919050565b60006125688261253d565b9050919050565b6125788161255d565b82525050565b6000602082019050612593600083018461256f565b92915050565b6125a28161255d565b81146125ad57600080fd5b50565b6000813590506125bf81612599565b92915050565b600080604083850312156125dc576125db612363565b5b60006125ea858286016125b0565b92505060206125fb858286016124fb565b9150509250929050565b60008060006060848603121561261e5761261d612363565b5b600061262c868287016125b0565b935050602061263d868287016125b0565b925050604061264e868287016124fb565b9150509250925092565b60006020828403121561266e5761266d612363565b5b600061267c848285016125b0565b91505092915050565b61268e816124da565b82525050565b60006020820190506126a96000830184612685565b92915050565b6126b8816123f2565b81146126c357600080fd5b50565b6000813590506126d5816126af565b92915050565b600080604083850312156126f2576126f1612363565b5b6000612700858286016125b0565b9250506020612711858286016126c6565b9150509250929050565b600080fd5b600080fd5b7f4e487b7100000000000000000000000000000000000000000000000000000000600052604160045260246000fd5b61275d8261246e565b810181811067ffffffffffffffff8211171561277c5761277b612725565b5b80604052505050565b600061278f612359565b905061279b8282612754565b919050565b600067ffffffffffffffff8211156127bb576127ba612725565b5b6127c48261246e565b9050602081019050919050565b82818337600083830152505050565b60006127f36127ee846127a0565b612785565b90508281526020810184848401111561280f5761280e612720565b5b61281a8482856127d1565b509392505050565b600082601f8301126128375761283661271b565b5b81356128478482602086016127e0565b91505092915050565b6000806000806080858703121561286a57612869612363565b5b6000612878878288016125b0565b9450506020612889878288016125b0565b935050604061289a878288016124fb565b925050606085013567ffffffffffffffff8111156128bb576128ba612368565b5b6128c787828801612822565b91505092959194509250565b600080604083850312156128ea576128e9612363565b5b60006128f8858286016125b0565b9250506020612909858286016125b0565b9150509250929050565b7f4e487b7100000000000000000000000000000000000000000000000000000000600052602260045260246000fd5b6000600282049050600182168061295a57607f821691505b60208210810361296d5761296c612913565b5b50919050565b7f4552433732313a20617070726f76616c20746f2063757272656e74206f776e6560008201527f7200000000000000000000000000000000000000000000000000000000000000602082015250565b60006129cf602183612433565b91506129da82612973565b604082019050919050565b600060208201905081810360008301526129fe816129c2565b9050919050565b7f4552433732313a20617070726f76652063616c6c6572206973206e6f7420746f60008201527f6b656e206f776e6572206f7220617070726f76656420666f7220616c6c000000602082015250565b6000612a61603d83612433565b9150612a6c82612a05565b604082019050919050565b60006020820190508181036000830152612a9081612a54565b9050919050565b7f4552433732313a2063616c6c6572206973206e6f7420746f6b656e206f776e6560008201527f72206f7220617070726f76656400000000000000000000000000000000000000602082015250565b6000612af3602d83612433565b9150612afe82612a97565b604082019050919050565b60006020820190508181036000830152612b2281612ae6565b9050919050565b600081905092915050565b7f46495253545f574f524400000000000000000000000000000000000000000000600082015250565b6000612b6a600a83612b29565b9150612b7582612b34565b600a82019050919050565b6000612b8b82612428565b612b958185612b29565b9350612ba5818560208601612444565b80840191505092915050565b6000612bbc82612b5d565b9150612bc88284612b80565b915081905092915050565b7f4e487b7100000000000000000000000000000000000000000000000000000000600052601260045260246000fd5b6000612c0d826124da565b9150612c18836124da565b925082612c2857612c27612bd3565b5b828206905092915050565b7f4e487b7100000000000000000000000000000000000000000000000000000000600052603260045260246000fd5b7f4552433732313a20696e76616c696420746f6b656e2049440000000000000000600082015250565b6000612c98601883612433565b9150612ca382612c62565b602082019050919050565b60006020820190508181036000830152612cc781612c8b565b9050919050565b7f4552433732313a2061646472657373207a65726f206973206e6f74206120766160008201527f6c6964206f776e65720000000000000000000000000000000000000000000000602082015250565b6000612d2a602983612433565b9150612d3582612cce565b604082019050919050565b60006020820190508181036000830152612d5981612d1d565b9050919050565b6000612d6c8286612b80565b9150612d788285612b80565b9150612d848284612b80565b9150819050949350505050565b60008190508160005260206000209050919050565b60008154612db381612942565b612dbd8186612b29565b94506001821660008114612dd85760018114612ded57612e20565b60ff1983168652811515820286019350612e20565b612df685612d91565b60005b83811015612e1857815481890152600182019150602081019050612df9565b838801955050505b50505092915050565b7f3c2f746578743e3c2f7376673e00000000000000000000000000000000000000600082015250565b6000612e5f600d83612b29565b9150612e6a82612e29565b600d82019050919050565b6000612e818287612da6565b9150612e8d8286612b80565b9150612e998285612b80565b9150612ea58284612b80565b9150612eb082612e52565b915081905095945050505050565b7f7b226e616d65223a202200000000000000000000000000000000000000000000600082015250565b6000612ef4600a83612b29565b9150612eff82612ebe565b600a82019050919050565b7f222c20226465736372697074696f6e223a20224120686967686c79206163636c60008201527f61696d656420636f6c6c656374696f6e206f6620737175617265732e222c202260208201527f696d616765223a2022646174613a696d6167652f7376672b786d6c3b6261736560408201527f36342c0000000000000000000000000000000000000000000000000000000000606082015250565b6000612fb2606383612b29565b9150612fbd82612f0a565b606382019050919050565b7f227d000000000000000000000000000000000000000000000000000000000000600082015250565b6000612ffe600283612b29565b915061300982612fc8565b600282019050919050565b600061301f82612ee7565b915061302b8285612b80565b915061303682612fa5565b91506130428284612b80565b915061304d82612ff1565b91508190509392505050565b7f646174613a6170706c69636174696f6e2f6a736f6e3b6261736536342c000000600082015250565b600061308f601d83612b29565b915061309a82613059565b601d82019050919050565b60006130b082613082565b91506130bc8284612b80565b915081905092915050565b7f68747470733a2f2f6e6674707265766965772e30786465762e636f6465732f3f60008201527f636f64653d000000000000000000000000000000000000000000000000000000602082015250565b6000613123602583612b29565b915061312e826130c7565b602582019050919050565b600061314482613116565b91506131508284612b80565b915081905092915050565b6000604082019050613170600083018561256f565b61317d6020830184612685565b9392505050565b7f5345434f4e445f574f5244000000000000000000000000000000000000000000600082015250565b60006131ba600b83612b29565b91506131c582613184565b600b82019050919050565b60006131db826131ad565b91506131e78284612b80565b915081905092915050565b7f54484952445f574f524400000000000000000000000000000000000000000000600082015250565b6000613228600a83612b29565b9150613233826131f2565b600a82019050919050565b60006132498261321b565b91506132558284612b80565b915081905092915050565b600061326c8285612b80565b91506132788284612b80565b91508190509392505050565b7f4552433732313a207472616e736665722066726f6d20696e636f72726563742060008201527f6f776e6572000000000000000000000000000000000000000000000000000000602082015250565b60006132e0602583612433565b91506132eb82613284565b604082019050919050565b6000602082019050818103600083015261330f816132d3565b9050919050565b7f4552433732313a207472616e7366657220746f20746865207a65726f2061646460008201527f7265737300000000000000000000000000000000000000000000000000000000602082015250565b6000613372602483612433565b915061337d82613316565b604082019050919050565b600060208201905081810360008301526133a181613365565b9050919050565b60006133b48284612b80565b915081905092915050565b7f4552433732313a20617070726f766520746f2063616c6c657200000000000000600082015250565b60006133f5601983612433565b9150613400826133bf565b602082019050919050565b60006020820190508181036000830152613424816133e8565b9050919050565b7f4e487b7100000000000000000000000000000000000000000000000000000000600052601160045260246000fd5b6000613465826124da565b9150613470836124da565b92508282019050808211156134885761348761342b565b5b92915050565b6000613499826124da565b91506134a4836124da565b9250826134b4576134b3612bd3565b5b828204905092915050565b60006134ca826124da565b91506134d5836124da565b92508282026134e3816124da565b915082820484148315176134fa576134f961342b565b5b5092915050565b7f45524337323155524953746f726167653a2055524920736574206f66206e6f6e60008201527f6578697374656e7420746f6b656e000000000000000000000000000000000000602082015250565b600061355d602e83612433565b915061356882613501565b604082019050919050565b6000602082019050818103600083015261358c81613550565b9050919050565b60006020601f8301049050919050565b600082821b905092915050565b6000600883026135e07fffffffffffffffffffffffffffffffffffffffffffffffffffffffffffffffff826135a3565b6135ea86836135a3565b95508019841693508086168417925050509392505050565b6000819050919050565b600061362761362261361d846124da565b613602565b6124da565b9050919050565b6000819050919050565b6136418361360c565b61365561364d8261362e565b8484546135b0565b825550505050565b600090565b61366a61365d565b613675818484613638565b505050565b5b818110156136995761368e600082613662565b60018101905061367b565b5050565b601f8211156136de576136af81612d91565b6136b884613593565b810160208510156136c7578190505b6136db6136d385613593565b83018261367a565b50505b505050565b600082821c905092915050565b6000613701600019846008026136e3565b1980831691505092915050565b600061371a83836136f0565b9150826002028217905092915050565b61373382612428565b67ffffffffffffffff81111561374c5761374b612725565b5b6137568254612942565b61376182828561369d565b600060209050601f8311600181146137945760008415613782578287015190505b61378c858261370e565b8655506137f4565b601f1984166137a286612d91565b60005b828110156137ca578489015182556001820191506020850194506020810190506137a5565b868310156137e757848901516137e3601f8916826136f0565b8355505b6001600288020188555050505b505050505050565b60006060820190508181036000830152613816818661247f565b90506138256020830185612685565b613832604083018461256f565b949350505050565b7f4552433732313a207472616e7366657220746f206e6f6e20455243373231526560008201527f63656976657220696d706c656d656e7465720000000000000000000000000000602082015250565b6000613896603283612433565b91506138a18261383a565b604082019050919050565b600060208201905081810360008301526138c581613889565b9050919050565b60006138d7826124da565b91506138e2836124da565b92508282039050818111156138fa576138f961342b565b5b92915050565b600081519050919050565b600082825260208201905092915050565b600061392782613900565b613931818561390b565b9350613941818560208601612444565b61394a8161246e565b840191505092915050565b600060808201905061396a600083018761256f565b613977602083018661256f565b6139846040830185612685565b8181036060830152613996818461391c565b905095945050505050565b6000815190506139b081612399565b92915050565b6000602082840312156139cc576139cb612363565b5b60006139da848285016139a1565b91505092915050565b7f4552433732313a206d696e7420746f20746865207a65726f2061646472657373600082015250565b6000613a19602083612433565b9150613a24826139e3565b602082019050919050565b60006020820190508181036000830152613a4881613a0c565b9050919050565b7f4552433732313a20746f6b656e20616c7265616479206d696e74656400000000600082015250565b6000613a85601c83612433565b9150613a9082613a4f565b602082019050919050565b60006020820190508181036000830152613ab481613a78565b905091905056fe416e204e465420772f20494420257320686173206265656e206d696e74656420746f2025734142434445464748494a4b4c4d4e4f505152535455565758595a6162636465666768696a6b6c6d6e6f707172737475767778797a303132333435363738392b2fa2646970667358221220f5314bd68eba7571907ea191e7abb87cab9d21055181140e2dd0624a7f61189864736f6c634300081100333c73766720786d6c6e733d27687474703a2f2f7777772e77332e6f72672f323030302f73766727207072657365727665417370656374526174696f3d27784d696e594d696e206d656574272076696577426f783d273020302033353020333530273e3c7374796c653e2e62617365207b2066696c6c3a2077686974653b20666f6e742d66616d696c793a2073657269663b20666f6e742d73697a653a20323470783b207d3c2f7374796c653e3c726563742077696474683d273130302527206865696768743d2731303025272066696c6c3d27626c61636b27202f3e3c7465787420783d273530252720793d273530252720636c6173733d27626173652720646f6d696e616e742d626173656c696e653d276d6964646c652720746578742d616e63686f723d276d6964646c65273e",
  "linkReferences": {},
  "deployedLinkReferences": {}
}