{
    "_format": "hh-sol-artifact-1",
    "contractName": "MyNFT",
    "sourceName": "contracts/MyNFT.sol",
    "abi": [
        {
            "inputs": [],
            "stateMutability": "nonpayable",
            "type": "constructor"
        },
        {
            "anonymous": false,
            "inputs": [
                {
                    "indexed": true,
                    "internalType": "address",
                    "name": "owner",
                    "type": "address"
                },
                {
                    "indexed": true,
                    "internalType": "address",
                    "name": "approved",
                    "type": "address"
                },
                {
                    "indexed": true,
                    "internalType": "uint256",
                    "name": "tokenId",
                    "type": "uint256"
                }
            ],
            "name": "Approval",
            "type": "event"
        },
        {
            "anonymous": false,
            "inputs": [
                {
                    "indexed": true,
                    "internalType": "address",
                    "name": "owner",
                    "type": "address"
                },
                {
                    "indexed": true,
                    "internalType": "address",
                    "name": "operator",
                    "type": "address"
                },
                {
                    "indexed": false,
                    "internalType": "bool",
                    "name": "approved",
                    "type": "bool"
                }
            ],
            "name": "ApprovalForAll",
            "type": "event"
        },
        {
            "anonymous": false,
            "inputs": [
                {
                    "indexed": true,
                    "internalType": "address",
                    "name": "from",
                    "type": "address"
                },
                {
                    "indexed": true,
                    "internalType": "address",
                    "name": "to",
                    "type": "address"
                },
                {
                    "indexed": true,
                    "internalType": "uint256",
                    "name": "tokenId",
                    "type": "uint256"
                }
            ],
            "name": "Transfer",
            "type": "event"
        },
        {
            "inputs": [
                {
                    "internalType": "address",
                    "name": "to",
                    "type": "address"
                },
                {
                    "internalType": "uint256",
                    "name": "tokenId",
                    "type": "uint256"
                }
            ],
            "name": "approve",
            "outputs": [],
            "stateMutability": "nonpayable",
            "type": "function"
        },
        {
            "inputs": [
                {
                    "internalType": "address",
                    "name": "owner",
                    "type": "address"
                }
            ],
            "name": "balanceOf",
            "outputs": [
                {
                    "internalType": "uint256",
                    "name": "",
                    "type": "uint256"
                }
            ],
            "stateMutability": "view",
            "type": "function"
        },
        {
            "inputs": [
                {
                    "internalType": "uint256",
                    "name": "tokenId",
                    "type": "uint256"
                }
            ],
            "name": "getApproved",
            "outputs": [
                {
                    "internalType": "address",
                    "name": "",
                    "type": "address"
                }
            ],
            "stateMutability": "view",
            "type": "function"
        },
        {
            "inputs": [
                {
                    "internalType": "address",
                    "name": "owner",
                    "type": "address"
                },
                {
                    "internalType": "address",
                    "name": "operator",
                    "type": "address"
                }
            ],
            "name": "isApprovedForAll",
            "outputs": [
                {
                    "internalType": "bool",
                    "name": "",
                    "type": "bool"
                }
            ],
            "stateMutability": "view",
            "type": "function"
        },
        {
            "inputs": [],
            "name": "makeNFT",
            "outputs": [],
            "stateMutability": "nonpayable",
            "type": "function"
        },
        {
            "inputs": [],
            "name": "name",
            "outputs": [
                {
                    "internalType": "string",
                    "name": "",
                    "type": "string"
                }
            ],
            "stateMutability": "view",
            "type": "function"
        },
        {
            "inputs": [
                {
                    "internalType": "uint256",
                    "name": "tokenId",
                    "type": "uint256"
                }
            ],
            "name": "ownerOf",
            "outputs": [
                {
                    "internalType": "address",
                    "name": "",
                    "type": "address"
                }
            ],
            "stateMutability": "view",
            "type": "function"
        },
        {
            "inputs": [
                {
                    "internalType": "uint256",
                    "name": "tokenId",
                    "type": "uint256"
                }
            ],
            "name": "pickRandomFirstWord",
            "outputs": [
                {
                    "internalType": "string",
                    "name": "",
                    "type": "string"
                }
            ],
            "stateMutability": "view",
            "type": "function"
        },
        {
            "inputs": [
                {
                    "internalType": "uint256",
                    "name": "tokenId",
                    "type": "uint256"
                }
            ],
            "name": "pickRandomSecondWord",
            "outputs": [
                {
                    "internalType": "string",
                    "name": "",
                    "type": "string"
                }
            ],
            "stateMutability": "view",
            "type": "function"
        },
        {
            "inputs": [
                {
                    "internalType": "uint256",
                    "name": "tokenId",
                    "type": "uint256"
                }
            ],
            "name": "pickRandomThirdWord",
            "outputs": [
                {
                    "internalType": "string",
                    "name": "",
                    "type": "string"
                }
            ],
            "stateMutability": "view",
            "type": "function"
        },
        {
            "inputs": [
                {
                    "internalType": "address",
                    "name": "from",
                    "type": "address"
                },
                {
                    "internalType": "address",
                    "name": "to",
                    "type": "address"
                },
                {
                    "internalType": "uint256",
                    "name": "tokenId",
                    "type": "uint256"
                }
            ],
            "name": "safeTransferFrom",
            "outputs": [],
            "stateMutability": "nonpayable",
            "type": "function"
        },
        {
            "inputs": [
                {
                    "internalType": "address",
                    "name": "from",
                    "type": "address"
                },
                {
                    "internalType": "address",
                    "name": "to",
                    "type": "address"
                },
                {
                    "internalType": "uint256",
                    "name": "tokenId",
                    "type": "uint256"
                },
                {
                    "internalType": "bytes",
                    "name": "data",
                    "type": "bytes"
                }
            ],
            "name": "safeTransferFrom",
            "outputs": [],
            "stateMutability": "nonpayable",
            "type": "function"
        },
        {
            "inputs": [
                {
                    "internalType": "address",
                    "name": "operator",
                    "type": "address"
                },
                {
                    "internalType": "bool",
                    "name": "approved",
                    "type": "bool"
                }
            ],
            "name": "setApprovalForAll",
            "outputs": [],
            "stateMutability": "nonpayable",
            "type": "function"
        },
        {
            "inputs": [
                {
                    "internalType": "bytes4",
                    "name": "interfaceId",
                    "type": "bytes4"
                }
            ],
            "name": "supportsInterface",
            "outputs": [
                {
                    "internalType": "bool",
                    "name": "",
                    "type": "bool"
                }
            ],
            "stateMutability": "view",
            "type": "function"
        },
        {
            "inputs": [],
            "name": "symbol",
            "outputs": [
                {
                    "internalType": "string",
                    "name": "",
                    "type": "string"
                }
            ],
            "stateMutability": "view",
            "type": "function"
        },
        {
            "inputs": [
                {
                    "internalType": "uint256",
                    "name": "tokenId",
                    "type": "uint256"
                }
            ],
            "name": "tokenURI",
            "outputs": [
                {
                    "internalType": "string",
                    "name": "",
                    "type": "string"
                }
            ],
            "stateMutability": "view",
            "type": "function"
        },
        {
            "inputs": [
                {
                    "internalType": "address",
                    "name": "from",
                    "type": "address"
                },
                {
                    "internalType": "address",
                    "name": "to",
                    "type": "address"
                },
                {
                    "internalType": "uint256",
                    "name": "tokenId",
                    "type": "uint256"
                }
            ],
            "name": "transferFrom",
            "outputs": [],
            "stateMutability": "nonpayable",
            "type": "function"
        }
    ],
    "bytecode": "0x608060405260405180610160016040528061012f815260200162004e3161012f91396008908162000031919062001193565b506040518061022001604052806040518060400160405280600881526020017f41646f7261626c6500000000000000000000000000000000000000000000000081525081526020016040518060400160405280600581526020017f4372617a7900000000000000000000000000000000000000000000000000000081525081526020016040518060400160405280600581526020017f427261766500000000000000000000000000000000000000000000000000000081525081526020016040518060400160405280600881526020017f4172726f67616e7400000000000000000000000000000000000000000000000081525081526020016040518060400160405280600981526020017f44616e6765726f7573000000000000000000000000000000000000000000000081525081526020016040518060400160405280600481526020017f437574650000000000000000000000000000000000000000000000000000000081525081526020016040518060400160405280600981526020017f446570726573736564000000000000000000000000000000000000000000000081525081526020016040518060400160405280600781526020017f437572696f75730000000000000000000000000000000000000000000000000081525081526020016040518060400160405280600481526020017f43616c6d0000000000000000000000000000000000000000000000000000000081525081526020016040518060400160405280600781526020017f4361726566756c0000000000000000000000000000000000000000000000000081525081526020016040518060400160405280600481526020017f427573790000000000000000000000000000000000000000000000000000000081525081526020016040518060400160405280600481526020017f527564650000000000000000000000000000000000000000000000000000000081525081526020016040518060400160405280600481526020017f4c617a790000000000000000000000000000000000000000000000000000000081525081526020016040518060400160405280600881526020017f467269656e646c7900000000000000000000000000000000000000000000000081525081526020016040518060400160405280600781526020017f53656c666973680000000000000000000000000000000000000000000000000081525081526020016040518060400160405280600881526020017f526174696f6e616c00000000000000000000000000000000000000000000000081525081526020016040518060400160405280600581526020017f54696d696400000000000000000000000000000000000000000000000000000081525081525060099060116200043992919062000dcc565b506040518061020001604052806040518060400160405280600481526020017f436865660000000000000000000000000000000000000000000000000000000081525081526020016040518060400160405280600681526020017f446f63746f72000000000000000000000000000000000000000000000000000081525081526020016040518060400160405280600681526020017f506f6c696365000000000000000000000000000000000000000000000000000081525081526020016040518060400160405280600981526020017f446574656374697665000000000000000000000000000000000000000000000081525081526020016040518060400160405280600981526020017f536369656e74697374000000000000000000000000000000000000000000000081525081526020016040518060400160405280600a81526020017f50726f6772616d6d65720000000000000000000000000000000000000000000081525081526020016040518060400160405280600a81526020017f4a6f75726e616c6973740000000000000000000000000000000000000000000081525081526020016040518060400160405280600781526020017f44656e746973740000000000000000000000000000000000000000000000000081525081526020016040518060400160405280600a81526020017f4163636f756e74616e740000000000000000000000000000000000000000000081525081526020016040518060400160405280600881526020017f44657369676e657200000000000000000000000000000000000000000000000081525081526020016040518060400160405280600781526020017f706c756d6265720000000000000000000000000000000000000000000000000081525081526020016040518060400160405280600681526020017f4c6177796572000000000000000000000000000000000000000000000000000081525081526020016040518060400160405280600981526020017f536563726574617279000000000000000000000000000000000000000000000081525081526020016040518060400160405280600c81526020017f54726176656c206167656e74000000000000000000000000000000000000000081525081526020016040518060400160405280600c81526020017f526563657074696f6e697374000000000000000000000000000000000000000081525081526020016040518060400160405280600a81526020017f506861726d616369737400000000000000000000000000000000000000000000815250815250600a9060106200080692919062000e2c565b506040518061022001604052806040518060400160405280600381526020017f446f67000000000000000000000000000000000000000000000000000000000081525081526020016040518060400160405280600481526020017f426561720000000000000000000000000000000000000000000000000000000081525081526020016040518060400160405280600481526020017f476f61740000000000000000000000000000000000000000000000000000000081525081526020016040518060400160405280600881526020017f456c657068616e7400000000000000000000000000000000000000000000000081525081526020016040518060400160405280600581526020017f486f72736500000000000000000000000000000000000000000000000000000081525081526020016040518060400160405280600381526020017f436174000000000000000000000000000000000000000000000000000000000081525081526020016040518060400160405280600481526020017f46726f670000000000000000000000000000000000000000000000000000000081525081526020016040518060400160405280600781526020017f476972616666650000000000000000000000000000000000000000000000000081525081526020016040518060400160405280600681526020017f4d6f6e6b6579000000000000000000000000000000000000000000000000000081525081526020016040518060400160405280600681526020017f496775616e61000000000000000000000000000000000000000000000000000081525081526020016040518060400160405280600581526020017f536865657000000000000000000000000000000000000000000000000000000081525081526020016040518060400160405280600581526020017f536e616b6500000000000000000000000000000000000000000000000000000081525081526020016040518060400160405280600581526020017f5a6562726100000000000000000000000000000000000000000000000000000081525081526020016040518060400160405280600881526020017f4b616e6761726f6f00000000000000000000000000000000000000000000000081525081526020016040518060400160405280600681526020017f496775616e61000000000000000000000000000000000000000000000000000081525081526020016040518060400160405280600481526020017f466973680000000000000000000000000000000000000000000000000000000081525081526020016040518060400160405280600881526020017f466c616d696e676f000000000000000000000000000000000000000000000000815250815250600b90601162000c0e92919062000dcc565b5034801562000c1c57600080fd5b506040518060400160405280600981526020017f5371756172654e465400000000000000000000000000000000000000000000008152506040518060400160405280600681526020017f5351554152450000000000000000000000000000000000000000000000000000815250816000908162000c9a919062001193565b50806001908162000cac919062001193565b50505062000cfa6040518060400160405280601e81526020017f54686973206973206d79204e465420636f6e74726163742e20576f616821000081525062000d0060201b6200100e1760201c565b6200132d565b62000da08160405160240162000d17919062001309565b6040516020818303038152906040527f41304fac000000000000000000000000000000000000000000000000000000007bffffffffffffffffffffffffffffffffffffffffffffffffffffffff19166020820180517bffffffffffffffffffffffffffffffffffffffffffffffffffffffff838183161783525050505062000da360201b60201c565b50565b60008151905060006a636f6e736f6c652e6c6f679050602083016000808483855afa5050505050565b82805482825590600052602060002090810192821562000e19579160200282015b8281111562000e1857825182908162000e07919062001193565b509160200191906001019062000ded565b5b50905062000e28919062000e8c565b5090565b82805482825590600052602060002090810192821562000e79579160200282015b8281111562000e7857825182908162000e67919062001193565b509160200191906001019062000e4d565b5b50905062000e88919062000e8c565b5090565b5b8082111562000eb0576000818162000ea6919062000eb4565b5060010162000e8d565b5090565b50805462000ec29062000f82565b6000825580601f1062000ed6575062000ef7565b601f01602090049060005260206000209081019062000ef6919062000efa565b5b50565b5b8082111562000f1557600081600090555060010162000efb565b5090565b600081519050919050565b7f4e487b7100000000000000000000000000000000000000000000000000000000600052604160045260246000fd5b7f4e487b7100000000000000000000000000000000000000000000000000000000600052602260045260246000fd5b6000600282049050600182168062000f9b57607f821691505b60208210810362000fb15762000fb062000f53565b5b50919050565b60008190508160005260206000209050919050565b60006020601f8301049050919050565b600082821b905092915050565b6000600883026200101b7fffffffffffffffffffffffffffffffffffffffffffffffffffffffffffffffff8262000fdc565b62001027868362000fdc565b95508019841693508086168417925050509392505050565b6000819050919050565b6000819050919050565b6000620010746200106e62001068846200103f565b62001049565b6200103f565b9050919050565b6000819050919050565b620010908362001053565b620010a86200109f826200107b565b84845462000fe9565b825550505050565b600090565b620010bf620010b0565b620010cc81848462001085565b505050565b5b81811015620010f457620010e8600082620010b5565b600181019050620010d2565b5050565b601f82111562001143576200110d8162000fb7565b620011188462000fcc565b8101602085101562001128578190505b62001140620011378562000fcc565b830182620010d1565b50505b505050565b600082821c905092915050565b6000620011686000198460080262001148565b1980831691505092915050565b600062001183838362001155565b9150826002028217905092915050565b6200119e8262000f19565b67ffffffffffffffff811115620011ba57620011b962000f24565b5b620011c6825462000f82565b620011d3828285620010f8565b600060209050601f8311600181146200120b5760008415620011f6578287015190505b62001202858262001175565b86555062001272565b601f1984166200121b8662000fb7565b60005b8281101562001245578489015182556001820191506020850194506020810190506200121e565b8683101562001265578489015162001261601f89168262001155565b8355505b6001600288020188555050505b505050505050565b600082825260208201905092915050565b60005b83811015620012ab5780820151818401526020810190506200128e565b60008484015250505050565b6000601f19601f8301169050919050565b6000620012d58262000f19565b620012e181856200127a565b9350620012f38185602086016200128b565b620012fe81620012b7565b840191505092915050565b60006020820190508181036000830152620013258184620012c8565b905092915050565b613af4806200133d6000396000f3fe608060405234801561001057600080fd5b506004361061010b5760003560e01c806370a08231116100a2578063b187301f11610071578063b187301f146102b6578063b88d4fde146102e6578063c575757a14610302578063c87b56dd14610332578063e985e9c5146103625761010b565b806370a082311461024257806395d89b4114610272578063a22cb46514610290578063b036b4bd146102ac5761010b565b806323b872dd116100de57806323b872dd146101aa5780632de38d68146101c657806342842e0e146101f65780636352211e146102125761010b565b806301ffc9a71461011057806306fdde0314610140578063081812fc1461015e578063095ea7b31461018e575b600080fd5b61012a6004803603810190610125919061238c565b610392565b60405161013791906123d4565b60405180910390f35b610148610474565b604051610155919061247f565b60405180910390f35b610178600480360381019061017391906124d7565b610506565b6040516101859190612545565b60405180910390f35b6101a860048036038101906101a3919061258c565b61054c565b005b6101c460048036038101906101bf91906125cc565b610663565b005b6101e060048036038101906101db91906124d7565b6106c3565b6040516101ed919061247f565b60405180910390f35b610210600480360381019061020b91906125cc565b6107bb565b005b61022c600480360381019061022791906124d7565b6107db565b6040516102399190612545565b60405180910390f35b61025c6004803603810190610257919061261f565b610861565b604051610269919061265b565b60405180910390f35b61027a610918565b604051610287919061247f565b60405180910390f35b6102aa60048036038101906102a591906126a2565b6109aa565b005b6102b46109c0565b005b6102d060048036038101906102cb91906124d7565b610c16565b6040516102dd919061247f565b60405180910390f35b61030060048036038101906102fb9190612817565b610d0e565b005b61031c600480360381019061031791906124d7565b610d70565b604051610329919061247f565b60405180910390f35b61034c600480360381019061034791906124d7565b610e68565b604051610359919061247f565b60405180910390f35b61037c6004803603810190610377919061289a565b610f7a565b60405161038991906123d4565b60405180910390f35b60007f80ac58cd000000000000000000000000000000000000000000000000000000007bffffffffffffffffffffffffffffffffffffffffffffffffffffffff1916827bffffffffffffffffffffffffffffffffffffffffffffffffffffffff1916148061045d57507f5b5e139f000000000000000000000000000000000000000000000000000000007bffffffffffffffffffffffffffffffffffffffffffffffffffffffff1916827bffffffffffffffffffffffffffffffffffffffffffffffffffffffff1916145b8061046d575061046c826110a7565b5b9050919050565b60606000805461048390612909565b80601f01602080910402602001604051908101604052809291908181526020018280546104af90612909565b80156104fc5780601f106104d1576101008083540402835291602001916104fc565b820191906000526020600020905b8154815290600101906020018083116104df57829003601f168201915b5050505050905090565b600061051182611111565b6004600083815260200190815260200160002060009054906101000a900473ffffffffffffffffffffffffffffffffffffffff169050919050565b6000610557826107db565b90508073ffffffffffffffffffffffffffffffffffffffff168373ffffffffffffffffffffffffffffffffffffffff16036105c7576040517f08c379a00000000000000000000000000000000000000000000000000000000081526004016105be906129ac565b60405180910390fd5b8073ffffffffffffffffffffffffffffffffffffffff166105e661115c565b73ffffffffffffffffffffffffffffffffffffffff16148061061557506106148161060f61115c565b610f7a565b5b610654576040517f08c379a000000000000000000000000000000000000000000000000000000000815260040161064b90612a3e565b60405180910390fd5b61065e8383611164565b505050565b61067461066e61115c565b8261121d565b6106b3576040517f08c379a00000000000000000000000000000000000000000000000000000000081526004016106aa90612ad0565b60405180910390fd5b6106be8383836112b2565b505050565b606060006106f76106d3846115ab565b6040516020016106e39190612b78565b604051602081830303815290604052611679565b90506009805490508161070a9190612bc9565b9050600981815481106107205761071f612bfa565b5b90600052602060002001805461073590612909565b80601f016020809104026020016040519081016040528092919081815260200182805461076190612909565b80156107ae5780601f10610783576101008083540402835291602001916107ae565b820191906000526020600020905b81548152906001019060200180831161079157829003601f168201915b5050505050915050919050565b6107d683838360405180602001604052806000815250610d0e565b505050565b6000806107e7836116ac565b9050600073ffffffffffffffffffffffffffffffffffffffff168173ffffffffffffffffffffffffffffffffffffffff1603610858576040517f08c379a000000000000000000000000000000000000000000000000000000000815260040161084f90612c75565b60405180910390fd5b80915050919050565b60008073ffffffffffffffffffffffffffffffffffffffff168273ffffffffffffffffffffffffffffffffffffffff16036108d1576040517f08c379a00000000000000000000000000000000000000000000000000000000081526004016108c890612d07565b60405180910390fd5b600360008373ffffffffffffffffffffffffffffffffffffffff1673ffffffffffffffffffffffffffffffffffffffff168152602001908152602001600020549050919050565b60606001805461092790612909565b80601f016020809104026020016040519081016040528092919081815260200182805461095390612909565b80156109a05780601f10610975576101008083540402835291602001916109a0565b820191906000526020600020905b81548152906001019060200180831161098357829003601f168201915b5050505050905090565b6109bc6109b561115c565b83836116e9565b5050565b60006109cc6007611855565b905060006109d9826106c3565b905060006109e683610c16565b905060006109f384610d70565b90506000838383604051602001610a0c93929190612d27565b604051602081830303815290604052905060006008858585604051602001610a379493929190612e3c565b6040516020818303038152906040529050610a866040518060400160405280601581526020017f0a2d2d2d2d2d2d2d2d2d2d2d2d2d2d2d2d2d2d2d2d000000000000000000000081525061100e565b610a8f8161100e565b610acd6040518060400160405280601581526020017f2d2d2d2d2d2d2d2d2d2d2d2d2d2d2d2d2d2d2d2d0a000000000000000000000081525061100e565b6000610b0183610adc84611863565b604051602001610aed929190612fdb565b604051602081830303815290604052611863565b9050600081604051602001610b16919061306c565b6040516020818303038152906040529050610b656040518060400160405280601581526020017f0a2d2d2d2d2d2d2d2d2d2d2d2d2d2d2d2d2d2d2d2d000000000000000000000081525061100e565b610b8d81604051602001610b799190613100565b60405160208183030381529060405261100e565b610bcb6040518060400160405280601581526020017f2d2d2d2d2d2d2d2d2d2d2d2d2d2d2d2d2d2d2d2d0a000000000000000000000081525061100e565b610bd533896119fa565b610bdf8882611a18565b610be96007611a85565b610c0c604051806060016040528060258152602001613a5a602591398933611a9b565b5050505050505050565b60606000610c4a610c26846115ab565b604051602001610c36919061316e565b604051602081830303815290604052611679565b9050600a8054905081610c5d9190612bc9565b9050600a8181548110610c7357610c72612bfa565b5b906000526020600020018054610c8890612909565b80601f0160208091040260200160405190810160405280929190818152602001828054610cb490612909565b8015610d015780601f10610cd657610100808354040283529160200191610d01565b820191906000526020600020905b815481529060010190602001808311610ce457829003601f168201915b5050505050915050919050565b610d1f610d1961115c565b8361121d565b610d5e576040517f08c379a0000000000000000000000000000000000000000000000000000000008152600401610d5590612ad0565b60405180910390fd5b610d6a84848484611b3a565b50505050565b60606000610da4610d80846115ab565b604051602001610d9091906131dc565b604051602081830303815290604052611679565b9050600b8054905081610db79190612bc9565b9050600b8181548110610dcd57610dcc612bfa565b5b906000526020600020018054610de290612909565b80601f0160208091040260200160405190810160405280929190818152602001828054610e0e90612909565b8015610e5b5780601f10610e3057610100808354040283529160200191610e5b565b820191906000526020600020905b815481529060010190602001808311610e3e57829003601f168201915b5050505050915050919050565b6060610e7382611111565b6000600660008481526020019081526020016000208054610e9390612909565b80601f0160208091040260200160405190810160405280929190818152602001828054610ebf90612909565b8015610f0c5780601f10610ee157610100808354040283529160200191610f0c565b820191906000526020600020905b815481529060010190602001808311610eef57829003601f168201915b505050505090506000610f1d611b96565b90506000815103610f32578192505050610f75565b600082511115610f67578082604051602001610f4f9291906131fe565b60405160208183030381529060405292505050610f75565b610f7084611bad565b925050505b919050565b6000600560008473ffffffffffffffffffffffffffffffffffffffff1673ffffffffffffffffffffffffffffffffffffffff16815260200190815260200160002060008373ffffffffffffffffffffffffffffffffffffffff1673ffffffffffffffffffffffffffffffffffffffff16815260200190815260200160002060009054906101000a900460ff16905092915050565b6110a481604051602401611022919061247f565b6040516020818303038152906040527f41304fac000000000000000000000000000000000000000000000000000000007bffffffffffffffffffffffffffffffffffffffffffffffffffffffff19166020820180517bffffffffffffffffffffffffffffffffffffffffffffffffffffffff8381831617835250505050611c15565b50565b60007f01ffc9a7000000000000000000000000000000000000000000000000000000007bffffffffffffffffffffffffffffffffffffffffffffffffffffffff1916827bffffffffffffffffffffffffffffffffffffffffffffffffffffffff1916149050919050565b61111a81611c3e565b611159576040517f08c379a000000000000000000000000000000000000000000000000000000000815260040161115090612c75565b60405180910390fd5b50565b600033905090565b816004600083815260200190815260200160002060006101000a81548173ffffffffffffffffffffffffffffffffffffffff021916908373ffffffffffffffffffffffffffffffffffffffff160217905550808273ffffffffffffffffffffffffffffffffffffffff166111d7836107db565b73ffffffffffffffffffffffffffffffffffffffff167f8c5be1e5ebec7d5bd14f71427d1e84f3dd0314c0f7b2291e5b200ac8c7c3b92560405160405180910390a45050565b600080611229836107db565b90508073ffffffffffffffffffffffffffffffffffffffff168473ffffffffffffffffffffffffffffffffffffffff16148061126b575061126a8185610f7a565b5b806112a957508373ffffffffffffffffffffffffffffffffffffffff1661129184610506565b73ffffffffffffffffffffffffffffffffffffffff16145b91505092915050565b8273ffffffffffffffffffffffffffffffffffffffff166112d2826107db565b73ffffffffffffffffffffffffffffffffffffffff1614611328576040517f08c379a000000000000000000000000000000000000000000000000000000000815260040161131f90613294565b60405180910390fd5b600073ffffffffffffffffffffffffffffffffffffffff168273ffffffffffffffffffffffffffffffffffffffff1603611397576040517f08c379a000000000000000000000000000000000000000000000000000000000815260040161138e90613326565b60405180910390fd5b6113a48383836001611c7f565b8273ffffffffffffffffffffffffffffffffffffffff166113c4826107db565b73ffffffffffffffffffffffffffffffffffffffff161461141a576040517f08c379a000000000000000000000000000000000000000000000000000000000815260040161141190613294565b60405180910390fd5b6004600082815260200190815260200160002060006101000a81549073ffffffffffffffffffffffffffffffffffffffff02191690556001600360008573ffffffffffffffffffffffffffffffffffffffff1673ffffffffffffffffffffffffffffffffffffffff168152602001908152602001600020600082825403925050819055506001600360008473ffffffffffffffffffffffffffffffffffffffff1673ffffffffffffffffffffffffffffffffffffffff16815260200190815260200160002060008282540192505081905550816002600083815260200190815260200160002060006101000a81548173ffffffffffffffffffffffffffffffffffffffff021916908373ffffffffffffffffffffffffffffffffffffffff160217905550808273ffffffffffffffffffffffffffffffffffffffff168473ffffffffffffffffffffffffffffffffffffffff167fddf252ad1be2c89b69c2b068fc378daa952ba7f163c4a11628f55a4df523b3ef60405160405180910390a46115a68383836001611da5565b505050565b6060600060016115ba84611dab565b01905060008167ffffffffffffffff8111156115d9576115d86126ec565b5b6040519080825280601f01601f19166020018201604052801561160b5781602001600182028036833780820191505090505b509050600082602001820190505b60011561166e578080600190039150507f3031323334353637383961626364656600000000000000000000000000000000600a86061a8153600a858161166257611661612b9a565b5b04945060008503611619575b819350505050919050565b60008160405160200161168c9190613346565b6040516020818303038152906040528051906020012060001c9050919050565b60006002600083815260200190815260200160002060009054906101000a900473ffffffffffffffffffffffffffffffffffffffff169050919050565b8173ffffffffffffffffffffffffffffffffffffffff168373ffffffffffffffffffffffffffffffffffffffff1603611757576040517f08c379a000000000000000000000000000000000000000000000000000000000815260040161174e906133a9565b60405180910390fd5b80600560008573ffffffffffffffffffffffffffffffffffffffff1673ffffffffffffffffffffffffffffffffffffffff16815260200190815260200160002060008473ffffffffffffffffffffffffffffffffffffffff1673ffffffffffffffffffffffffffffffffffffffff16815260200190815260200160002060006101000a81548160ff0219169083151502179055508173ffffffffffffffffffffffffffffffffffffffff168373ffffffffffffffffffffffffffffffffffffffff167f17307eab39ab6107e8899845ad3d59bd9653f200f220920489ca2b5937696c318360405161184891906123d4565b60405180910390a3505050565b600081600001549050919050565b60606000825190506000810361188b57604051806020016040528060008152509150506119f5565b6000600360028361189c91906133f8565b6118a6919061342c565b60046118b2919061345d565b905060006020826118c391906133f8565b67ffffffffffffffff8111156118dc576118db6126ec565b5b6040519080825280601f01601f19166020018201604052801561190e5781602001600182028036833780820191505090505b5090506000604051806060016040528060408152602001613a7f604091399050600181016020830160005b868110156119b25760038101905062ffffff818a015116603f8160121c168401518060081b905060ff603f83600c1c1686015116810190508060081b905060ff603f8360061c1686015116810190508060081b905060ff603f831686015116810190508060e01b90508084526004840193505050611939565b5060038606600181146119cc57600281146119dc576119e7565b613d3d60f01b60028303526119e7565b603d60f81b60018303525b508484525050819450505050505b919050565b611a14828260405180602001604052806000815250611efe565b5050565b611a2182611c3e565b611a60576040517f08c379a0000000000000000000000000000000000000000000000000000000008152600401611a5790613511565b60405180910390fd5b80600660008481526020019081526020016000209081611a8091906136c8565b505050565b6001816000016000828254019250508190555050565b611b35838383604051602401611ab39392919061379a565b6040516020818303038152906040527f1c7ec448000000000000000000000000000000000000000000000000000000007bffffffffffffffffffffffffffffffffffffffffffffffffffffffff19166020820180517bffffffffffffffffffffffffffffffffffffffffffffffffffffffff8381831617835250505050611c15565b505050565b611b458484846112b2565b611b5184848484611f59565b611b90576040517f08c379a0000000000000000000000000000000000000000000000000000000008152600401611b879061384a565b60405180910390fd5b50505050565b606060405180602001604052806000815250905090565b6060611bb882611111565b6000611bc2611b96565b90506000815111611be25760405180602001604052806000815250611c0d565b80611bec846115ab565b604051602001611bfd9291906131fe565b6040516020818303038152906040525b915050919050565b60008151905060006a636f6e736f6c652e6c6f679050602083016000808483855afa5050505050565b60008073ffffffffffffffffffffffffffffffffffffffff16611c60836116ac565b73ffffffffffffffffffffffffffffffffffffffff1614159050919050565b6001811115611d9f57600073ffffffffffffffffffffffffffffffffffffffff168473ffffffffffffffffffffffffffffffffffffffff1614611d135780600360008673ffffffffffffffffffffffffffffffffffffffff1673ffffffffffffffffffffffffffffffffffffffff1681526020019081526020016000206000828254611d0b919061386a565b925050819055505b600073ffffffffffffffffffffffffffffffffffffffff168373ffffffffffffffffffffffffffffffffffffffff1614611d9e5780600360008573ffffffffffffffffffffffffffffffffffffffff1673ffffffffffffffffffffffffffffffffffffffff1681526020019081526020016000206000828254611d9691906133f8565b925050819055505b5b50505050565b50505050565b600080600090507a184f03e93ff9f4daa797ed6e38ed64bf6a1f0100000000000000008310611e09577a184f03e93ff9f4daa797ed6e38ed64bf6a1f0100000000000000008381611dff57611dfe612b9a565b5b0492506040810190505b6d04ee2d6d415b85acef81000000008310611e46576d04ee2d6d415b85acef81000000008381611e3c57611e3b612b9a565b5b0492506020810190505b662386f26fc100008310611e7557662386f26fc100008381611e6b57611e6a612b9a565b5b0492506010810190505b6305f5e1008310611e9e576305f5e1008381611e9457611e93612b9a565b5b0492506008810190505b6127108310611ec3576127108381611eb957611eb8612b9a565b5b0492506004810190505b60648310611ee65760648381611edc57611edb612b9a565b5b0492506002810190505b600a8310611ef5576001810190505b80915050919050565b611f0883836120e0565b611f156000848484611f59565b611f54576040517f08c379a0000000000000000000000000000000000000000000000000000000008152600401611f4b9061384a565b60405180910390fd5b505050565b6000611f7a8473ffffffffffffffffffffffffffffffffffffffff166122fd565b156120d3578373ffffffffffffffffffffffffffffffffffffffff1663150b7a02611fa361115c565b8786866040518563ffffffff1660e01b8152600401611fc594939291906138f3565b6020604051808303816000875af192505050801561200157506040513d601f19601f82011682018060405250810190611ffe9190613954565b60015b612083573d8060008114612031576040519150601f19603f3d011682016040523d82523d6000602084013e612036565b606091505b50600081510361207b576040517f08c379a00000000000000000000000000000000000000000000000000000000081526004016120729061384a565b60405180910390fd5b805181602001fd5b63150b7a0260e01b7bffffffffffffffffffffffffffffffffffffffffffffffffffffffff1916817bffffffffffffffffffffffffffffffffffffffffffffffffffffffff1916149150506120d8565b600190505b949350505050565b600073ffffffffffffffffffffffffffffffffffffffff168273ffffffffffffffffffffffffffffffffffffffff160361214f576040517f08c379a0000000000000000000000000000000000000000000000000000000008152600401612146906139cd565b60405180910390fd5b61215881611c3e565b15612198576040517f08c379a000000000000000000000000000000000000000000000000000000000815260040161218f90613a39565b60405180910390fd5b6121a6600083836001611c7f565b6121af81611c3e565b156121ef576040517f08c379a00000000000000000000000000000000000000000000000000000000081526004016121e690613a39565b60405180910390fd5b6001600360008473ffffffffffffffffffffffffffffffffffffffff1673ffffffffffffffffffffffffffffffffffffffff16815260200190815260200160002060008282540192505081905550816002600083815260200190815260200160002060006101000a81548173ffffffffffffffffffffffffffffffffffffffff021916908373ffffffffffffffffffffffffffffffffffffffff160217905550808273ffffffffffffffffffffffffffffffffffffffff16600073ffffffffffffffffffffffffffffffffffffffff167fddf252ad1be2c89b69c2b068fc378daa952ba7f163c4a11628f55a4df523b3ef60405160405180910390a46122f9600083836001611da5565b5050565b6000808273ffffffffffffffffffffffffffffffffffffffff163b119050919050565b6000604051905090565b600080fd5b600080fd5b60007fffffffff0000000000000000000000000000000000000000000000000000000082169050919050565b61236981612334565b811461237457600080fd5b50565b60008135905061238681612360565b92915050565b6000602082840312156123a2576123a161232a565b5b60006123b084828501612377565b91505092915050565b60008115159050919050565b6123ce816123b9565b82525050565b60006020820190506123e960008301846123c5565b92915050565b600081519050919050565b600082825260208201905092915050565b60005b8381101561242957808201518184015260208101905061240e565b60008484015250505050565b6000601f19601f8301169050919050565b6000612451826123ef565b61245b81856123fa565b935061246b81856020860161240b565b61247481612435565b840191505092915050565b600060208201905081810360008301526124998184612446565b905092915050565b6000819050919050565b6124b4816124a1565b81146124bf57600080fd5b50565b6000813590506124d1816124ab565b92915050565b6000602082840312156124ed576124ec61232a565b5b60006124fb848285016124c2565b91505092915050565b600073ffffffffffffffffffffffffffffffffffffffff82169050919050565b600061252f82612504565b9050919050565b61253f81612524565b82525050565b600060208201905061255a6000830184612536565b92915050565b61256981612524565b811461257457600080fd5b50565b60008135905061258681612560565b92915050565b600080604083850312156125a3576125a261232a565b5b60006125b185828601612577565b92505060206125c2858286016124c2565b9150509250929050565b6000806000606084860312156125e5576125e461232a565b5b60006125f386828701612577565b935050602061260486828701612577565b9250506040612615868287016124c2565b9150509250925092565b6000602082840312156126355761263461232a565b5b600061264384828501612577565b91505092915050565b612655816124a1565b82525050565b6000602082019050612670600083018461264c565b92915050565b61267f816123b9565b811461268a57600080fd5b50565b60008135905061269c81612676565b92915050565b600080604083850312156126b9576126b861232a565b5b60006126c785828601612577565b92505060206126d88582860161268d565b9150509250929050565b600080fd5b600080fd5b7f4e487b7100000000000000000000000000000000000000000000000000000000600052604160045260246000fd5b61272482612435565b810181811067ffffffffffffffff82111715612743576127426126ec565b5b80604052505050565b6000612756612320565b9050612762828261271b565b919050565b600067ffffffffffffffff821115612782576127816126ec565b5b61278b82612435565b9050602081019050919050565b82818337600083830152505050565b60006127ba6127b584612767565b61274c565b9050828152602081018484840111156127d6576127d56126e7565b5b6127e1848285612798565b509392505050565b600082601f8301126127fe576127fd6126e2565b5b813561280e8482602086016127a7565b91505092915050565b600080600080608085870312156128315761283061232a565b5b600061283f87828801612577565b945050602061285087828801612577565b9350506040612861878288016124c2565b925050606085013567ffffffffffffffff8111156128825761288161232f565b5b61288e878288016127e9565b91505092959194509250565b600080604083850312156128b1576128b061232a565b5b60006128bf85828601612577565b92505060206128d085828601612577565b9150509250929050565b7f4e487b7100000000000000000000000000000000000000000000000000000000600052602260045260246000fd5b6000600282049050600182168061292157607f821691505b602082108103612934576129336128da565b5b50919050565b7f4552433732313a20617070726f76616c20746f2063757272656e74206f776e6560008201527f7200000000000000000000000000000000000000000000000000000000000000602082015250565b60006129966021836123fa565b91506129a18261293a565b604082019050919050565b600060208201905081810360008301526129c581612989565b9050919050565b7f4552433732313a20617070726f76652063616c6c6572206973206e6f7420746f60008201527f6b656e206f776e6572206f7220617070726f76656420666f7220616c6c000000602082015250565b6000612a28603d836123fa565b9150612a33826129cc565b604082019050919050565b60006020820190508181036000830152612a5781612a1b565b9050919050565b7f4552433732313a2063616c6c6572206973206e6f7420746f6b656e206f776e6560008201527f72206f7220617070726f76656400000000000000000000000000000000000000602082015250565b6000612aba602d836123fa565b9150612ac582612a5e565b604082019050919050565b60006020820190508181036000830152612ae981612aad565b9050919050565b600081905092915050565b7f46495253545f574f524400000000000000000000000000000000000000000000600082015250565b6000612b31600a83612af0565b9150612b3c82612afb565b600a82019050919050565b6000612b52826123ef565b612b5c8185612af0565b9350612b6c81856020860161240b565b80840191505092915050565b6000612b8382612b24565b9150612b8f8284612b47565b915081905092915050565b7f4e487b7100000000000000000000000000000000000000000000000000000000600052601260045260246000fd5b6000612bd4826124a1565b9150612bdf836124a1565b925082612bef57612bee612b9a565b5b828206905092915050565b7f4e487b7100000000000000000000000000000000000000000000000000000000600052603260045260246000fd5b7f4552433732313a20696e76616c696420746f6b656e2049440000000000000000600082015250565b6000612c5f6018836123fa565b9150612c6a82612c29565b602082019050919050565b60006020820190508181036000830152612c8e81612c52565b9050919050565b7f4552433732313a2061646472657373207a65726f206973206e6f74206120766160008201527f6c6964206f776e65720000000000000000000000000000000000000000000000602082015250565b6000612cf16029836123fa565b9150612cfc82612c95565b604082019050919050565b60006020820190508181036000830152612d2081612ce4565b9050919050565b6000612d338286612b47565b9150612d3f8285612b47565b9150612d4b8284612b47565b9150819050949350505050565b60008190508160005260206000209050919050565b60008154612d7a81612909565b612d848186612af0565b94506001821660008114612d9f5760018114612db457612de7565b60ff1983168652811515820286019350612de7565b612dbd85612d58565b60005b83811015612ddf57815481890152600182019150602081019050612dc0565b838801955050505b50505092915050565b7f3c2f746578743e3c2f7376673e00000000000000000000000000000000000000600082015250565b6000612e26600d83612af0565b9150612e3182612df0565b600d82019050919050565b6000612e488287612d6d565b9150612e548286612b47565b9150612e608285612b47565b9150612e6c8284612b47565b9150612e7782612e19565b915081905095945050505050565b7f7b226e616d65223a202200000000000000000000000000000000000000000000600082015250565b6000612ebb600a83612af0565b9150612ec682612e85565b600a82019050919050565b7f222c20226465736372697074696f6e223a20224120686967686c79206163636c60008201527f61696d656420636f6c6c656374696f6e206f6620737175617265732e222c202260208201527f696d616765223a2022646174613a696d6167652f7376672b786d6c3b6261736560408201527f36342c0000000000000000000000000000000000000000000000000000000000606082015250565b6000612f79606383612af0565b9150612f8482612ed1565b606382019050919050565b7f227d000000000000000000000000000000000000000000000000000000000000600082015250565b6000612fc5600283612af0565b9150612fd082612f8f565b600282019050919050565b6000612fe682612eae565b9150612ff28285612b47565b9150612ffd82612f6c565b91506130098284612b47565b915061301482612fb8565b91508190509392505050565b7f646174613a6170706c69636174696f6e2f6a736f6e3b6261736536342c000000600082015250565b6000613056601d83612af0565b915061306182613020565b601d82019050919050565b600061307782613049565b91506130838284612b47565b915081905092915050565b7f68747470733a2f2f6e6674707265766965772e30786465762e636f6465732f3f60008201527f636f64653d000000000000000000000000000000000000000000000000000000602082015250565b60006130ea602583612af0565b91506130f58261308e565b602582019050919050565b600061310b826130dd565b91506131178284612b47565b915081905092915050565b7f5345434f4e445f574f5244000000000000000000000000000000000000000000600082015250565b6000613158600b83612af0565b915061316382613122565b600b82019050919050565b60006131798261314b565b91506131858284612b47565b915081905092915050565b7f54484952445f574f524400000000000000000000000000000000000000000000600082015250565b60006131c6600a83612af0565b91506131d182613190565b600a82019050919050565b60006131e7826131b9565b91506131f38284612b47565b915081905092915050565b600061320a8285612b47565b91506132168284612b47565b91508190509392505050565b7f4552433732313a207472616e736665722066726f6d20696e636f72726563742060008201527f6f776e6572000000000000000000000000000000000000000000000000000000602082015250565b600061327e6025836123fa565b915061328982613222565b604082019050919050565b600060208201905081810360008301526132ad81613271565b9050919050565b7f4552433732313a207472616e7366657220746f20746865207a65726f2061646460008201527f7265737300000000000000000000000000000000000000000000000000000000602082015250565b60006133106024836123fa565b915061331b826132b4565b604082019050919050565b6000602082019050818103600083015261333f81613303565b9050919050565b60006133528284612b47565b915081905092915050565b7f4552433732313a20617070726f766520746f2063616c6c657200000000000000600082015250565b60006133936019836123fa565b915061339e8261335d565b602082019050919050565b600060208201905081810360008301526133c281613386565b9050919050565b7f4e487b7100000000000000000000000000000000000000000000000000000000600052601160045260246000fd5b6000613403826124a1565b915061340e836124a1565b9250828201905080821115613426576134256133c9565b5b92915050565b6000613437826124a1565b9150613442836124a1565b92508261345257613451612b9a565b5b828204905092915050565b6000613468826124a1565b9150613473836124a1565b9250828202613481816124a1565b91508282048414831517613498576134976133c9565b5b5092915050565b7f45524337323155524953746f726167653a2055524920736574206f66206e6f6e60008201527f6578697374656e7420746f6b656e000000000000000000000000000000000000602082015250565b60006134fb602e836123fa565b91506135068261349f565b604082019050919050565b6000602082019050818103600083015261352a816134ee565b9050919050565b60006020601f8301049050919050565b600082821b905092915050565b60006008830261357e7fffffffffffffffffffffffffffffffffffffffffffffffffffffffffffffffff82613541565b6135888683613541565b95508019841693508086168417925050509392505050565b6000819050919050565b60006135c56135c06135bb846124a1565b6135a0565b6124a1565b9050919050565b6000819050919050565b6135df836135aa565b6135f36135eb826135cc565b84845461354e565b825550505050565b600090565b6136086135fb565b6136138184846135d6565b505050565b5b818110156136375761362c600082613600565b600181019050613619565b5050565b601f82111561367c5761364d81612d58565b61365684613531565b81016020851015613665578190505b61367961367185613531565b830182613618565b50505b505050565b600082821c905092915050565b600061369f60001984600802613681565b1980831691505092915050565b60006136b8838361368e565b9150826002028217905092915050565b6136d1826123ef565b67ffffffffffffffff8111156136ea576136e96126ec565b5b6136f48254612909565b6136ff82828561363b565b600060209050601f8311600181146137325760008415613720578287015190505b61372a85826136ac565b865550613792565b601f19841661374086612d58565b60005b8281101561376857848901518255600182019150602085019450602081019050613743565b868310156137855784890151613781601f89168261368e565b8355505b6001600288020188555050505b505050505050565b600060608201905081810360008301526137b48186612446565b90506137c3602083018561264c565b6137d06040830184612536565b949350505050565b7f4552433732313a207472616e7366657220746f206e6f6e20455243373231526560008201527f63656976657220696d706c656d656e7465720000000000000000000000000000602082015250565b60006138346032836123fa565b915061383f826137d8565b604082019050919050565b6000602082019050818103600083015261386381613827565b9050919050565b6000613875826124a1565b9150613880836124a1565b9250828203905081811115613898576138976133c9565b5b92915050565b600081519050919050565b600082825260208201905092915050565b60006138c58261389e565b6138cf81856138a9565b93506138df81856020860161240b565b6138e881612435565b840191505092915050565b60006080820190506139086000830187612536565b6139156020830186612536565b613922604083018561264c565b818103606083015261393481846138ba565b905095945050505050565b60008151905061394e81612360565b92915050565b60006020828403121561396a5761396961232a565b5b60006139788482850161393f565b91505092915050565b7f4552433732313a206d696e7420746f20746865207a65726f2061646472657373600082015250565b60006139b76020836123fa565b91506139c282613981565b602082019050919050565b600060208201905081810360008301526139e6816139aa565b9050919050565b7f4552433732313a20746f6b656e20616c7265616479206d696e74656400000000600082015250565b6000613a23601c836123fa565b9150613a2e826139ed565b602082019050919050565b60006020820190508181036000830152613a5281613a16565b905091905056fe416e204e465420772f20494420257320686173206265656e206d696e74656420746f2025734142434445464748494a4b4c4d4e4f505152535455565758595a6162636465666768696a6b6c6d6e6f707172737475767778797a303132333435363738392b2fa26469706673582212207b35a694485b96e0ce2c0f350d3838da58353b06a51ff3ddb57de24a8ae341b664736f6c634300081100333c73766720786d6c6e733d27687474703a2f2f7777772e77332e6f72672f323030302f73766727207072657365727665417370656374526174696f3d27784d696e594d696e206d656574272076696577426f783d273020302033353020333530273e3c7374796c653e2e62617365207b2066696c6c3a2077686974653b20666f6e742d66616d696c793a2073657269663b20666f6e742d73697a653a20323470783b207d3c2f7374796c653e3c726563742077696474683d273130302527206865696768743d2731303025272066696c6c3d27626c61636b27202f3e3c7465787420783d273530252720793d273530252720636c6173733d27626173652720646f6d696e616e742d626173656c696e653d276d6964646c652720746578742d616e63686f723d276d6964646c65273e",
    "linkReferences": {},
    "deployedLinkReferences": {}
}